{
  "contractName": "KidsBank",
  "abi": [
    {
      "anonymous": false,
      "inputs": [
        {
          "indexed": true,
          "internalType": "address",
          "name": "_child",
          "type": "address"
        }
      ],
      "name": "AccountActivated",
      "type": "event"
    },
    {
      "anonymous": false,
      "inputs": [
        {
          "indexed": true,
          "internalType": "address",
          "name": "parent",
          "type": "address"
        },
        {
          "indexed": true,
          "internalType": "address",
          "name": "child",
          "type": "address"
        },
        {
          "indexed": false,
          "internalType": "string",
          "name": "childName",
          "type": "string"
        },
        {
          "indexed": false,
          "internalType": "uint8",
          "name": "age",
          "type": "uint8"
        }
      ],
      "name": "AccountCreated",
      "type": "event"
    },
    {
      "anonymous": false,
      "inputs": [
        {
          "indexed": true,
          "internalType": "address",
          "name": "_child",
          "type": "address"
        }
      ],
      "name": "AccountDeactivated",
      "type": "event"
    },
    {
      "anonymous": false,
      "inputs": [
        {
          "indexed": true,
          "internalType": "address",
          "name": "parent",
          "type": "address"
        },
        {
          "indexed": true,
          "internalType": "address",
          "name": "child",
          "type": "address"
        },
        {
          "indexed": false,
          "internalType": "uint256",
          "name": "amount",
          "type": "uint256"
        }
      ],
      "name": "DepositMade",
      "type": "event"
    },
    {
      "anonymous": false,
      "inputs": [
        {
          "indexed": true,
          "internalType": "address",
          "name": "_add",
          "type": "address"
        },
        {
          "indexed": true,
          "internalType": "address",
          "name": "_add2",
          "type": "address"
        },
        {
          "indexed": false,
          "internalType": "uint256",
          "name": "amount",
          "type": "uint256"
        }
      ],
      "name": "WithdrawalMade",
      "type": "event"
    },
    {
      "inputs": [
        {
          "internalType": "address",
          "name": "",
          "type": "address"
        }
      ],
      "name": "isParent",
      "outputs": [
        {
          "internalType": "bool",
          "name": "",
          "type": "bool"
        }
      ],
      "stateMutability": "view",
      "type": "function",
      "constant": true
    },
    {
      "inputs": [
        {
          "internalType": "address",
          "name": "",
          "type": "address"
        }
      ],
      "name": "kidAccounts",
      "outputs": [
        {
          "internalType": "address",
          "name": "parent",
          "type": "address"
        },
        {
          "internalType": "string",
          "name": "parentName",
          "type": "string"
        },
        {
          "internalType": "address",
          "name": "child",
          "type": "address"
        },
        {
          "internalType": "string",
          "name": "childName",
          "type": "string"
        },
        {
          "internalType": "uint8",
          "name": "age",
          "type": "uint8"
        },
        {
          "internalType": "uint256",
          "name": "balance",
          "type": "uint256"
        },
        {
          "internalType": "uint256",
          "name": "allowance",
          "type": "uint256"
        },
        {
          "internalType": "uint256",
          "name": "withdrawLimit",
          "type": "uint256"
        },
        {
          "internalType": "uint256",
          "name": "lastDeposit",
          "type": "uint256"
        },
        {
          "internalType": "uint256",
          "name": "nextAllowanceTime",
          "type": "uint256"
        },
        {
          "internalType": "bool",
          "name": "hasGuardianApproval",
          "type": "bool"
        },
        {
          "internalType": "bool",
          "name": "isAccountActive",
          "type": "bool"
        }
      ],
      "stateMutability": "view",
      "type": "function",
      "constant": true
    },
    {
      "inputs": [
        {
          "internalType": "address",
          "name": "_child",
          "type": "address"
        },
        {
          "internalType": "string",
          "name": "_childName",
          "type": "string"
        },
        {
          "internalType": "uint8",
          "name": "_age",
          "type": "uint8"
        },
        {
          "internalType": "string",
          "name": "parentName",
          "type": "string"
        }
      ],
      "name": "createAccount",
      "outputs": [],
      "stateMutability": "nonpayable",
      "type": "function"
    },
    {
      "inputs": [
        {
          "internalType": "address",
          "name": "_kid",
          "type": "address"
        }
      ],
      "name": "getKid",
      "outputs": [
        {
          "internalType": "address",
          "name": "parent",
          "type": "address"
        },
        {
          "internalType": "address",
          "name": "child",
          "type": "address"
        },
        {
          "internalType": "string",
          "name": "childName",
          "type": "string"
        },
        {
          "internalType": "uint256",
          "name": "balance",
          "type": "uint256"
        },
        {
          "internalType": "string",
          "name": "parentName",
          "type": "string"
        }
      ],
      "stateMutability": "view",
      "type": "function",
      "constant": true
    },
    {
      "inputs": [
        {
          "internalType": "address",
          "name": "_add",
          "type": "address"
        }
      ],
      "name": "checkIfParent",
      "outputs": [
        {
          "internalType": "bool",
          "name": "",
          "type": "bool"
        }
      ],
      "stateMutability": "view",
      "type": "function",
      "constant": true
    },
    {
      "inputs": [
        {
          "internalType": "address",
          "name": "_addr",
          "type": "address"
        }
      ],
      "name": "checkIfChild",
      "outputs": [
        {
          "internalType": "bool",
          "name": "",
          "type": "bool"
        }
      ],
      "stateMutability": "view",
      "type": "function",
      "constant": true
    },
    {
      "inputs": [
        {
          "internalType": "address",
          "name": "_child",
          "type": "address"
        },
        {
          "internalType": "uint256",
          "name": "amountInEther",
          "type": "uint256"
        }
      ],
      "name": "setAllowance",
      "outputs": [],
      "stateMutability": "nonpayable",
      "type": "function"
    },
    {
      "inputs": [
        {
          "internalType": "address",
          "name": "_child",
          "type": "address"
        }
      ],
      "name": "deposit",
      "outputs": [],
      "stateMutability": "payable",
      "type": "function",
      "payable": true
    },
    {
      "inputs": [
        {
          "internalType": "address",
          "name": "_add",
          "type": "address"
        }
      ],
      "name": "activateAccont",
      "outputs": [],
      "stateMutability": "nonpayable",
      "type": "function"
    },
    {
      "inputs": [
        {
          "internalType": "address",
          "name": "_child",
          "type": "address"
        }
      ],
      "name": "checkAndDeactivateAccount",
      "outputs": [],
      "stateMutability": "nonpayable",
      "type": "function"
    },
    {
      "inputs": [
        {
          "internalType": "address",
          "name": "_child",
          "type": "address"
        },
        {
          "internalType": "uint256",
          "name": "_amount",
          "type": "uint256"
        }
      ],
      "name": "withdraw",
      "outputs": [],
      "stateMutability": "nonpayable",
      "type": "function"
    }
  ],
  "bytecode": "0x608060405234801561000f575f80fd5b50612c078061001d5f395ff3fe60806040526004361061009b575f3560e01c8063648114741161006357806364811474146101c657806366188020146101ee578063ea99dfd71461022a578063ecd78d4c14610252578063f340fa011461027a578063f3fef3a3146102965761009b565b80630814ff131461009f57806323cae338146100db57806325870f1214610122578063310ec4a71461015e578063323756d014610186575b5f80fd5b3480156100aa575f80fd5b506100c560048036038101906100c09190611cc7565b6102be565b6040516100d29190611d0c565b60405180910390f35b3480156100e6575f80fd5b5061010160048036038101906100fc9190611cc7565b6102db565b6040516101199c9b9a99989796959493929190611df1565b60405180910390f35b34801561012d575f80fd5b5061014860048036038101906101439190611cc7565b6104a6565b6040516101559190611d0c565b60405180910390f35b348015610169575f80fd5b50610184600480360381019061017f9190611ee1565b61053c565b005b348015610191575f80fd5b506101ac60048036038101906101a79190611cc7565b61067c565b6040516101bd959493929190611f1f565b60405180910390f35b3480156101d1575f80fd5b506101ec60048036038101906101e79190611cc7565b610947565b005b3480156101f9575f80fd5b50610214600480360381019061020f9190611cc7565b610a8d565b6040516102219190611d0c565b60405180910390f35b348015610235575f80fd5b50610250600480360381019061024b91906120d4565b610adf565b005b34801561025d575f80fd5b5061027860048036038101906102739190611cc7565b61100a565b005b610294600480360381019061028f9190611cc7565b6111e4565b005b3480156102a1575f80fd5b506102bc60048036038101906102b79190611ee1565b611633565b005b6002602052805f5260405f205f915054906101000a900460ff1681565b6001602052805f5260405f205f91509050805f015f9054906101000a900473ffffffffffffffffffffffffffffffffffffffff169080600101805461031f9061219d565b80601f016020809104026020016040519081016040528092919081815260200182805461034b9061219d565b80156103965780601f1061036d57610100808354040283529160200191610396565b820191905f5260205f20905b81548152906001019060200180831161037957829003601f168201915b505050505090806002015f9054906101000a900473ffffffffffffffffffffffffffffffffffffffff16908060030180546103d09061219d565b80601f01602080910402602001604051908101604052809291908181526020018280546103fc9061219d565b80156104475780601f1061041e57610100808354040283529160200191610447565b820191905f5260205f20905b81548152906001019060200180831161042a57829003601f168201915b505050505090806004015f9054906101000a900460ff169080600501549080600601549080600701549080600801549080600901549080600a015f9054906101000a900460ff169080600a0160019054906101000a900460ff1690508c565b5f8073ffffffffffffffffffffffffffffffffffffffff1660015f8473ffffffffffffffffffffffffffffffffffffffff1673ffffffffffffffffffffffffffffffffffffffff1681526020019081526020015f205f015f9054906101000a900473ffffffffffffffffffffffffffffffffffffffff1673ffffffffffffffffffffffffffffffffffffffff1614159050919050565b60025f3373ffffffffffffffffffffffffffffffffffffffff1673ffffffffffffffffffffffffffffffffffffffff1681526020019081526020015f205f9054906101000a900460ff166105c5576040517f08c379a00000000000000000000000000000000000000000000000000000000081526004016105bc9061223d565b60405180910390fd5b5f73ffffffffffffffffffffffffffffffffffffffff168273ffffffffffffffffffffffffffffffffffffffff1603610633576040517f08c379a000000000000000000000000000000000000000000000000000000000815260040161062a906122a5565b60405180910390fd5b8060015f8473ffffffffffffffffffffffffffffffffffffffff1673ffffffffffffffffffffffffffffffffffffffff1681526020019081526020015f20600601819055505050565b5f8060605f60605f60015f8873ffffffffffffffffffffffffffffffffffffffff1673ffffffffffffffffffffffffffffffffffffffff1681526020019081526020015f20604051806101800160405290815f82015f9054906101000a900473ffffffffffffffffffffffffffffffffffffffff1673ffffffffffffffffffffffffffffffffffffffff1673ffffffffffffffffffffffffffffffffffffffff1681526020016001820180546107319061219d565b80601f016020809104026020016040519081016040528092919081815260200182805461075d9061219d565b80156107a85780601f1061077f576101008083540402835291602001916107a8565b820191905f5260205f20905b81548152906001019060200180831161078b57829003601f168201915b50505050508152602001600282015f9054906101000a900473ffffffffffffffffffffffffffffffffffffffff1673ffffffffffffffffffffffffffffffffffffffff1673ffffffffffffffffffffffffffffffffffffffff1681526020016003820180546108169061219d565b80601f01602080910402602001604051908101604052809291908181526020018280546108429061219d565b801561088d5780601f106108645761010080835404028352916020019161088d565b820191905f5260205f20905b81548152906001019060200180831161087057829003601f168201915b50505050508152602001600482015f9054906101000a900460ff1660ff1660ff1681526020016005820154815260200160068201548152602001600782015481526020016008820154815260200160098201548152602001600a82015f9054906101000a900460ff16151515158152602001600a820160019054906101000a900460ff1615151515815250509050805f0151816040015182606001518360a001518460200151955095509550955095505091939590929450565b610950816104a6565b61098f576040517f08c379a000000000000000000000000000000000000000000000000000000000815260040161098690612333565b60405180910390fd5b5f60015f8373ffffffffffffffffffffffffffffffffffffffff1673ffffffffffffffffffffffffffffffffffffffff1681526020019081526020015f206008015490505f6276a700905080826109e6919061237e565b4210610a88575f60015f8573ffffffffffffffffffffffffffffffffffffffff1673ffffffffffffffffffffffffffffffffffffffff1681526020019081526020015f20600a0160016101000a81548160ff0219169083151502179055508273ffffffffffffffffffffffffffffffffffffffff167f21831c2238658baa66ab1895cb18bdeaf2bea535a3df6126b7ada3842574837560405160405180910390a25b505050565b5f60025f8373ffffffffffffffffffffffffffffffffffffffff1673ffffffffffffffffffffffffffffffffffffffff1681526020019081526020015f205f9054906101000a900460ff169050919050565b5f73ffffffffffffffffffffffffffffffffffffffff168473ffffffffffffffffffffffffffffffffffffffff1603610b4d576040517f08c379a0000000000000000000000000000000000000000000000000000000008152600401610b44906122a5565b60405180910390fd5b8373ffffffffffffffffffffffffffffffffffffffff163373ffffffffffffffffffffffffffffffffffffffff1603610bbb576040517f08c379a0000000000000000000000000000000000000000000000000000000008152600401610bb2906123fb565b60405180910390fd5b5f8260ff16118015610bd0575060128260ff16105b610c0f576040517f08c379a0000000000000000000000000000000000000000000000000000000008152600401610c0690612463565b60405180910390fd5b5f83604051602001610c2191906124bb565b60405160208183030381529060405280519060200120905060035f3373ffffffffffffffffffffffffffffffffffffffff1673ffffffffffffffffffffffffffffffffffffffff1681526020019081526020015f205f8281526020019081526020015f205f9054906101000a900460ff1615610cd2576040517f08c379a0000000000000000000000000000000000000000000000000000000008152600401610cc990612541565b60405180910390fd5b6040518061018001604052803373ffffffffffffffffffffffffffffffffffffffff1681526020018381526020018673ffffffffffffffffffffffffffffffffffffffff1681526020018581526020018460ff1681526020015f81526020015f81526020015f81526020014281526020015f81526020015f151581526020016001151581525060015f8773ffffffffffffffffffffffffffffffffffffffff1673ffffffffffffffffffffffffffffffffffffffff1681526020019081526020015f205f820151815f015f6101000a81548173ffffffffffffffffffffffffffffffffffffffff021916908373ffffffffffffffffffffffffffffffffffffffff1602179055506020820151816001019081610dee91906126fc565b506040820151816002015f6101000a81548173ffffffffffffffffffffffffffffffffffffffff021916908373ffffffffffffffffffffffffffffffffffffffff1602179055506060820151816003019081610e4a91906126fc565b506080820151816004015f6101000a81548160ff021916908360ff16021790555060a0820151816005015560c0820151816006015560e082015181600701556101008201518160080155610120820151816009015561014082015181600a015f6101000a81548160ff02191690831515021790555061016082015181600a0160016101000a81548160ff021916908315150217905550905050600160035f3373ffffffffffffffffffffffffffffffffffffffff1673ffffffffffffffffffffffffffffffffffffffff1681526020019081526020015f205f8381526020019081526020015f205f6101000a81548160ff0219169083151502179055508473ffffffffffffffffffffffffffffffffffffffff163373ffffffffffffffffffffffffffffffffffffffff167f188a1419c1523b420621b3b155163853a133ad8e7faeb40de22a5cb51bc0905d8686604051610fa69291906127cb565b60405180910390a3600160025f3373ffffffffffffffffffffffffffffffffffffffff1673ffffffffffffffffffffffffffffffffffffffff1681526020019081526020015f205f6101000a81548160ff0219169083151502179055505050505050565b805f73ffffffffffffffffffffffffffffffffffffffff168173ffffffffffffffffffffffffffffffffffffffff1603611079576040517f08c379a0000000000000000000000000000000000000000000000000000000008152600401611070906122a5565b60405180910390fd5b3373ffffffffffffffffffffffffffffffffffffffff1660015f8373ffffffffffffffffffffffffffffffffffffffff1673ffffffffffffffffffffffffffffffffffffffff1681526020019081526020015f205f015f9054906101000a900473ffffffffffffffffffffffffffffffffffffffff1673ffffffffffffffffffffffffffffffffffffffff1614611145576040517f08c379a000000000000000000000000000000000000000000000000000000000815260040161113c90612843565b60405180910390fd5b6001805f8473ffffffffffffffffffffffffffffffffffffffff1673ffffffffffffffffffffffffffffffffffffffff1681526020019081526020015f20600a0160016101000a81548160ff0219169083151502179055508173ffffffffffffffffffffffffffffffffffffffff167fcfacdcf9289f1b69c533dda67fc14bae036114cd912d8f9fa9676e95d4ec028460405160405180910390a25050565b60025f3373ffffffffffffffffffffffffffffffffffffffff1673ffffffffffffffffffffffffffffffffffffffff1681526020019081526020015f205f9054906101000a900460ff1661126d576040517f08c379a00000000000000000000000000000000000000000000000000000000081526004016112649061223d565b60405180910390fd5b805f73ffffffffffffffffffffffffffffffffffffffff168173ffffffffffffffffffffffffffffffffffffffff16036112dc576040517f08c379a00000000000000000000000000000000000000000000000000000000081526004016112d3906122a5565b60405180910390fd5b3373ffffffffffffffffffffffffffffffffffffffff1660015f8373ffffffffffffffffffffffffffffffffffffffff1673ffffffffffffffffffffffffffffffffffffffff1681526020019081526020015f205f015f9054906101000a900473ffffffffffffffffffffffffffffffffffffffff1673ffffffffffffffffffffffffffffffffffffffff16146113a8576040517f08c379a000000000000000000000000000000000000000000000000000000000815260040161139f90612843565b60405180910390fd5b8160015f8273ffffffffffffffffffffffffffffffffffffffff1673ffffffffffffffffffffffffffffffffffffffff1681526020019081526020015f20600a0160019054906101000a900460ff16611436576040517f08c379a000000000000000000000000000000000000000000000000000000000815260040161142d906128ab565b60405180910390fd5b5f73ffffffffffffffffffffffffffffffffffffffff168373ffffffffffffffffffffffffffffffffffffffff16036114a4576040517f08c379a000000000000000000000000000000000000000000000000000000000815260040161149b906122a5565b60405180910390fd5b6114ad836104a6565b6114ec576040517f08c379a00000000000000000000000000000000000000000000000000000000081526004016114e390612939565b60405180910390fd5b5f341161152e576040517f08c379a0000000000000000000000000000000000000000000000000000000008152600401611525906129a1565b60405180910390fd5b3460015f8573ffffffffffffffffffffffffffffffffffffffff1673ffffffffffffffffffffffffffffffffffffffff1681526020019081526020015f206005015f82825461157d919061237e565b925050819055504260015f8573ffffffffffffffffffffffffffffffffffffffff1673ffffffffffffffffffffffffffffffffffffffff1681526020019081526020015f20600801819055508273ffffffffffffffffffffffffffffffffffffffff163373ffffffffffffffffffffffffffffffffffffffff167f1de3ece35391f6bba650736f2d5d3f12e2cfc54538a340cc5d762d34ca449de73460405161162691906129bf565b60405180910390a3505050565b5f73ffffffffffffffffffffffffffffffffffffffff168273ffffffffffffffffffffffffffffffffffffffff16036116a1576040517f08c379a0000000000000000000000000000000000000000000000000000000008152600401611698906122a5565b60405180910390fd5b5f60015f8473ffffffffffffffffffffffffffffffffffffffff1673ffffffffffffffffffffffffffffffffffffffff1681526020019081526020015f20604051806101800160405290815f82015f9054906101000a900473ffffffffffffffffffffffffffffffffffffffff1673ffffffffffffffffffffffffffffffffffffffff1673ffffffffffffffffffffffffffffffffffffffff16815260200160018201805461174f9061219d565b80601f016020809104026020016040519081016040528092919081815260200182805461177b9061219d565b80156117c65780601f1061179d576101008083540402835291602001916117c6565b820191905f5260205f20905b8154815290600101906020018083116117a957829003601f168201915b50505050508152602001600282015f9054906101000a900473ffffffffffffffffffffffffffffffffffffffff1673ffffffffffffffffffffffffffffffffffffffff1673ffffffffffffffffffffffffffffffffffffffff1681526020016003820180546118349061219d565b80601f01602080910402602001604051908101604052809291908181526020018280546118609061219d565b80156118ab5780601f10611882576101008083540402835291602001916118ab565b820191905f5260205f20905b81548152906001019060200180831161188e57829003601f168201915b50505050508152602001600482015f9054906101000a900460ff1660ff1660ff1681526020016005820154815260200160068201548152602001600782015481526020016008820154815260200160098201548152602001600a82015f9054906101000a900460ff16151515158152602001600a820160019054906101000a900460ff1615151515815250509050818160a001511015611980576040517f08c379a000000000000000000000000000000000000000000000000000000000815260040161197790612a22565b60405180910390fd5b805f015173ffffffffffffffffffffffffffffffffffffffff163373ffffffffffffffffffffffffffffffffffffffff1603611a7e57818160a0018181516119c89190612a40565b915081815250503373ffffffffffffffffffffffffffffffffffffffff166108fc8390811502906040515f60405180830381858888f19350505050158015611a12573d5f803e3d5ffd5b508273ffffffffffffffffffffffffffffffffffffffff163373ffffffffffffffffffffffffffffffffffffffff167f26aabd0b187d03562b9e52195f1ff57274164c7fd5588254b7654cc27dde2b0084604051611a7091906129bf565b60405180910390a350611c58565b8273ffffffffffffffffffffffffffffffffffffffff163373ffffffffffffffffffffffffffffffffffffffff1614611aec576040517f08c379a0000000000000000000000000000000000000000000000000000000008152600401611ae390612ae3565b60405180910390fd5b806101200151421015611b34576040517f08c379a0000000000000000000000000000000000000000000000000000000008152600401611b2b90612b4b565b60405180910390fd5b8060c00151821115611b7b576040517f08c379a0000000000000000000000000000000000000000000000000000000008152600401611b7290612bb3565b60405180910390fd5b818160a001818151611b8d9190612a40565b9150818152505062278d0042611ba3919061237e565b816101200181815250503373ffffffffffffffffffffffffffffffffffffffff166108fc8390811502906040515f60405180830381858888f19350505050158015611bf0573d5f803e3d5ffd5b508273ffffffffffffffffffffffffffffffffffffffff163373ffffffffffffffffffffffffffffffffffffffff167f26aabd0b187d03562b9e52195f1ff57274164c7fd5588254b7654cc27dde2b0084604051611c4e91906129bf565b60405180910390a3505b5050565b5f604051905090565b5f80fd5b5f80fd5b5f73ffffffffffffffffffffffffffffffffffffffff82169050919050565b5f611c9682611c6d565b9050919050565b611ca681611c8c565b8114611cb0575f80fd5b50565b5f81359050611cc181611c9d565b92915050565b5f60208284031215611cdc57611cdb611c65565b5b5f611ce984828501611cb3565b91505092915050565b5f8115159050919050565b611d0681611cf2565b82525050565b5f602082019050611d1f5f830184611cfd565b92915050565b611d2e81611c8c565b82525050565b5f81519050919050565b5f82825260208201905092915050565b5f5b83811015611d6b578082015181840152602081019050611d50565b5f8484015250505050565b5f601f19601f8301169050919050565b5f611d9082611d34565b611d9a8185611d3e565b9350611daa818560208601611d4e565b611db381611d76565b840191505092915050565b5f60ff82169050919050565b611dd381611dbe565b82525050565b5f819050919050565b611deb81611dd9565b82525050565b5f61018082019050611e055f83018f611d25565b8181036020830152611e17818e611d86565b9050611e26604083018d611d25565b8181036060830152611e38818c611d86565b9050611e47608083018b611dca565b611e5460a083018a611de2565b611e6160c0830189611de2565b611e6e60e0830188611de2565b611e7c610100830187611de2565b611e8a610120830186611de2565b611e98610140830185611cfd565b611ea6610160830184611cfd565b9d9c50505050505050505050505050565b611ec081611dd9565b8114611eca575f80fd5b50565b5f81359050611edb81611eb7565b92915050565b5f8060408385031215611ef757611ef6611c65565b5b5f611f0485828601611cb3565b9250506020611f1585828601611ecd565b9150509250929050565b5f60a082019050611f325f830188611d25565b611f3f6020830187611d25565b8181036040830152611f518186611d86565b9050611f606060830185611de2565b8181036080830152611f728184611d86565b90509695505050505050565b5f80fd5b5f80fd5b7f4e487b71000000000000000000000000000000000000000000000000000000005f52604160045260245ffd5b611fbc82611d76565b810181811067ffffffffffffffff82111715611fdb57611fda611f86565b5b80604052505050565b5f611fed611c5c565b9050611ff98282611fb3565b919050565b5f67ffffffffffffffff82111561201857612017611f86565b5b61202182611d76565b9050602081019050919050565b828183375f83830152505050565b5f61204e61204984611ffe565b611fe4565b90508281526020810184848401111561206a57612069611f82565b5b61207584828561202e565b509392505050565b5f82601f83011261209157612090611f7e565b5b81356120a184826020860161203c565b91505092915050565b6120b381611dbe565b81146120bd575f80fd5b50565b5f813590506120ce816120aa565b92915050565b5f805f80608085870312156120ec576120eb611c65565b5b5f6120f987828801611cb3565b945050602085013567ffffffffffffffff81111561211a57612119611c69565b5b6121268782880161207d565b9350506040612137878288016120c0565b925050606085013567ffffffffffffffff81111561215857612157611c69565b5b6121648782880161207d565b91505092959194509250565b7f4e487b71000000000000000000000000000000000000000000000000000000005f52602260045260245ffd5b5f60028204905060018216806121b457607f821691505b6020821081036121c7576121c6612170565b5b50919050565b7f4f6e6c7920706172656e74732063616e2063616c6c206d616b652074686973205f8201527f7472616e73616374696f6e000000000000000000000000000000000000000000602082015250565b5f612227602b83611d3e565b9150612232826121cd565b604082019050919050565b5f6020820190508181035f8301526122548161221b565b9050919050565b7f496e76616c6964206368696c64206164647265737300000000000000000000005f82015250565b5f61228f601583611d3e565b915061229a8261225b565b602082019050919050565b5f6020820190508181035f8301526122bc81612283565b9050919050565b7f4163636f756e7420646f6573206e6f74206578697374206f7220697320616c725f8201527f6561647920646561637469766174656400000000000000000000000000000000602082015250565b5f61231d603083611d3e565b9150612328826122c3565b604082019050919050565b5f6020820190508181035f83015261234a81612311565b9050919050565b7f4e487b71000000000000000000000000000000000000000000000000000000005f52601160045260245ffd5b5f61238882611dd9565b915061239383611dd9565b92508282019050808211156123ab576123aa612351565b5b92915050565b7f4f6e6c7920706172656e74732063616e20637265617465206163636f756e74735f82015250565b5f6123e5602083611d3e565b91506123f0826123b1565b602082019050919050565b5f6020820190508181035f830152612412816123d9565b9050919050565b7f416765206d757374206265206265747765656e203120616e64203137000000005f82015250565b5f61244d601c83611d3e565b915061245882612419565b602082019050919050565b5f6020820190508181035f83015261247a81612441565b9050919050565b5f81905092915050565b5f61249582611d34565b61249f8185612481565b93506124af818560208601611d4e565b80840191505092915050565b5f6124c6828461248b565b915081905092915050565b7f596f75206861766520616c726561647920757365642074686973206368696c645f8201527f206e616d65000000000000000000000000000000000000000000000000000000602082015250565b5f61252b602583611d3e565b9150612536826124d1565b604082019050919050565b5f6020820190508181035f8301526125588161251f565b9050919050565b5f819050815f5260205f209050919050565b5f6020601f8301049050919050565b5f82821b905092915050565b5f600883026125bb7fffffffffffffffffffffffffffffffffffffffffffffffffffffffffffffffff82612580565b6125c58683612580565b95508019841693508086168417925050509392505050565b5f819050919050565b5f6126006125fb6125f684611dd9565b6125dd565b611dd9565b9050919050565b5f819050919050565b612619836125e6565b61262d61262582612607565b84845461258c565b825550505050565b5f90565b612641612635565b61264c818484612610565b505050565b5b8181101561266f576126645f82612639565b600181019050612652565b5050565b601f8211156126b4576126858161255f565b61268e84612571565b8101602085101561269d578190505b6126b16126a985612571565b830182612651565b50505b505050565b5f82821c905092915050565b5f6126d45f19846008026126b9565b1980831691505092915050565b5f6126ec83836126c5565b9150826002028217905092915050565b61270582611d34565b67ffffffffffffffff81111561271e5761271d611f86565b5b612728825461219d565b612733828285612673565b5f60209050601f831160018114612764575f8415612752578287015190505b61275c85826126e1565b8655506127c3565b601f1984166127728661255f565b5f5b8281101561279957848901518255600182019150602085019450602081019050612774565b868310156127b657848901516127b2601f8916826126c5565b8355505b6001600288020188555050505b505050505050565b5f6040820190508181035f8301526127e38185611d86565b90506127f26020830184611dca565b9392505050565b7f4e6f74206120706172656e74206f662074686973206163636f756e74210000005f82015250565b5f61282d601d83611d3e565b9150612838826127f9565b602082019050919050565b5f6020820190508181035f83015261285a81612821565b9050919050565b7f4163636f756e74206973206e6f742061637469766500000000000000000000005f82015250565b5f612895601583611d3e565b91506128a082612861565b602082019050919050565b5f6020820190508181035f8301526128c281612889565b9050919050565b7f4163636f756e7420646f6573206e6f7420657869737420666f722074686973205f8201527f6164647265737300000000000000000000000000000000000000000000000000602082015250565b5f612923602783611d3e565b915061292e826128c9565b604082019050919050565b5f6020820190508181035f83015261295081612917565b9050919050565b7f416d6f756e74206d7573742062652067726561746572207468616e20300000005f82015250565b5f61298b601d83611d3e565b915061299682612957565b602082019050919050565b5f6020820190508181035f8301526129b88161297f565b9050919050565b5f6020820190506129d25f830184611de2565b92915050565b7f496e73756666696369656e742062616c616e63650000000000000000000000005f82015250565b5f612a0c601483611d3e565b9150612a17826129d8565b602082019050919050565b5f6020820190508181035f830152612a3981612a00565b9050919050565b5f612a4a82611dd9565b9150612a5583611dd9565b9250828203905081811115612a6d57612a6c612351565b5b92915050565b7f4f6e6c7920746865206368696c642063616e20776974686472617720746865695f8201527f7220616c6c6f77616e6365000000000000000000000000000000000000000000602082015250565b5f612acd602b83611d3e565b9150612ad882612a73565b604082019050919050565b5f6020820190508181035f830152612afa81612ac1565b9050919050565b7f416c6c6f77616e6365206e6f7420617661696c61626c652079657400000000005f82015250565b5f612b35601b83611d3e565b9150612b4082612b01565b602082019050919050565b5f6020820190508181035f830152612b6281612b29565b9050919050565b7f4578636565647320616c6c6f77616e6365206c696d69740000000000000000005f82015250565b5f612b9d601783611d3e565b9150612ba882612b69565b602082019050919050565b5f6020820190508181035f830152612bca81612b91565b905091905056fea2646970667358221220da1bee38c1c3f73e9cf37a260bf74cc99332279f3dc7b463344155d721b6320f64736f6c63430008150033",
  "immutableReferences": {},
  "source": "// SPDX-License-Identifier: MIT\r\npragma solidity ^0.8.21;\r\n\r\ncontract KidsBank {\r\n    address owner;\r\n    struct KidAccount {\r\n        address parent;\r\n        string parentName;\r\n        address child;\r\n        string childName;\r\n        uint8 age;\r\n        uint256 balance;\r\n        uint256 allowance;\r\n        uint256 withdrawLimit;\r\n        uint256 lastDeposit;\r\n        uint256 nextAllowanceTime;\r\n        bool hasGuardianApproval;\r\n        bool isAccountActive;\r\n    }\r\n\r\n    event AccountCreated(\r\n        address indexed parent,\r\n        address indexed child,\r\n        string childName,\r\n        uint8 age\r\n    );\r\n    event DepositMade(\r\n        address indexed parent,\r\n        address indexed child,\r\n        uint256 amount\r\n    );\r\n    event AccountDeactivated(address indexed _child);\r\n    event AccountActivated(address indexed _child);\r\n    event WithdrawalMade(\r\n        address indexed _add,\r\n        address indexed _add2,\r\n        uint256 amount\r\n    );\r\n\r\n    mapping(address => KidAccount) public kidAccounts;\r\n    mapping(address => bool) public isParent;\r\n    mapping(address => mapping(bytes32 => bool)) private usedChildNames;\r\n    modifier isParentOnly() {\r\n        require(isParent[msg.sender], \"Only parents can call make this transaction\");\r\n        _;\r\n    }\r\n\r\n    modifier childBelongToParent(address _add) {\r\n        require(_add != address(0), \"Invalid child address\");\r\n        require(\r\n            kidAccounts[_add].parent == msg.sender,\r\n            \"Not a parent of this account!\"\r\n        );\r\n        _;\r\n    }\r\n\r\n    modifier isAccountActive(address _add) {\r\n        require(kidAccounts[_add].isAccountActive, \"Account is not active\");\r\n        _;\r\n    }\r\n\r\n    function createAccount(\r\n        address _child,\r\n        string memory _childName,\r\n        uint8 _age,\r\n        string memory parentName\r\n    ) public {\r\n        require(_child != address(0), \"Invalid child address\");\r\n        require(msg.sender != _child, \"Only parents can create accounts\");\r\n        require(_age > 0 && _age < 18, \"Age must be between 1 and 17\");\r\n\r\n        bytes32 childNameHash = keccak256(abi.encodePacked(_childName));\r\n\r\n        // Check if this parent has already used this child name\r\n        require(\r\n            !usedChildNames[msg.sender][childNameHash],\r\n            \"You have already used this child name\"\r\n        );\r\n\r\n        kidAccounts[_child] = KidAccount({\r\n            parent: msg.sender,\r\n            child: _child,\r\n            childName: _childName,\r\n            age: _age,\r\n            balance: 0,\r\n            allowance: 0,\r\n            withdrawLimit: 0,\r\n            hasGuardianApproval: false,\r\n            isAccountActive: true,\r\n            parentName: parentName,\r\n            lastDeposit: block.timestamp,\r\n            nextAllowanceTime: 0\r\n        });\r\n\r\n        usedChildNames[msg.sender][childNameHash] = true; // Store used name for this parent\r\n\r\n        emit AccountCreated(msg.sender, _child, _childName, _age);\r\n\r\n        isParent[msg.sender] = true;\r\n    }\r\n\r\n    function getKid(\r\n        address _kid\r\n    )\r\n        public\r\n        view\r\n        returns (\r\n            address parent,\r\n            address child,\r\n            string memory childName,\r\n            uint256 balance,\r\n            string memory parentName\r\n        )\r\n    {\r\n        KidAccount memory k = kidAccounts[_kid];\r\n        return (k.parent, k.child, k.childName, k.balance, k.parentName);\r\n    }\r\n\r\n    function checkIfParent(address _add) public view returns (bool) {\r\n        return isParent[_add];\r\n    }\r\n\r\n    function checkIfChild(address _addr) public view returns (bool) {\r\n        return kidAccounts[_addr].parent != address(0); // Quick lookup\r\n    }\r\n\r\n    function setAllowance(\r\n        address _child,\r\n        uint256 amountInEther\r\n    ) public isParentOnly {\r\n        require(_child != address(0), \"Invalid child address\"); // Quick check for errors\r\n        kidAccounts[_child].allowance = amountInEther;\r\n    }\r\n\r\n    function deposit(\r\n        address _child\r\n    )\r\n        public\r\n        payable\r\n        isParentOnly\r\n        childBelongToParent(_child)\r\n        isAccountActive(_child)\r\n    {\r\n        require(_child != address(0), \"Invalid child address\");\r\n        require(\r\n            checkIfChild(_child),\r\n            \"Account does not exist for this address\"\r\n        );\r\n        require(msg.value > 0, \"Amount must be greater than 0\");\r\n\r\n        kidAccounts[_child].balance += msg.value;\r\n        kidAccounts[_child].lastDeposit = block.timestamp;\r\n        emit DepositMade(msg.sender, _child, msg.value);\r\n    }\r\n\r\n    function activateAccont(address _add) public childBelongToParent(_add) {\r\n        kidAccounts[_add].isAccountActive = true;\r\n        emit AccountActivated(_add);\r\n    }\r\n\r\n    function checkAndDeactivateAccount(address _child) public {\r\n        require(\r\n            checkIfChild(_child),\r\n            \"Account does not exist or is already deactivated\"\r\n        );\r\n        uint256 lastTimeDeposit = kidAccounts[_child].lastDeposit;\r\n        uint256 threeMonths = 90 days;\r\n\r\n        if (block.timestamp >= (lastTimeDeposit + threeMonths)) {\r\n            kidAccounts[_child].isAccountActive = false;\r\n            emit AccountDeactivated(_child);\r\n        }\r\n    }\r\n\r\n    function withdraw(address _child, uint _amount) public {\r\n        require(_child != address(0), \"Invalid child address\");\r\n  \r\n        KidAccount memory account = kidAccounts[_child];\r\n        require(account.balance >= _amount, \"Insufficient balance\");\r\n\r\n        // If the parent is withdrawing, allow any amount\r\n        if (msg.sender == account.parent) {\r\n            account.balance -= _amount;\r\n            payable(msg.sender).transfer(_amount);\r\n            emit WithdrawalMade(msg.sender, _child, _amount);\r\n            return;\r\n        }\r\n\r\n        // If a child is withdrawing, enforce allowance rules\r\n        require(\r\n            msg.sender == _child,\r\n            \"Only the child can withdraw their allowance\"\r\n        );\r\n        require(\r\n            block.timestamp >= account.nextAllowanceTime,\r\n            \"Allowance not available yet\"\r\n        );\r\n        require(_amount <= account.allowance, \"Exceeds allowance limit\");\r\n\r\n        // Process allowance withdrawal\r\n        account.balance -= _amount;\r\n        account.nextAllowanceTime = block.timestamp + 30 days;\r\n        payable(msg.sender).transfer(_amount);\r\n\r\n        emit WithdrawalMade(msg.sender, _child, _amount);\r\n    }\r\n}\r\n",
  "sourcePath": "C:\\Users\\{JSON}\\Desktop\\KidsBank\\contracts\\KidsAccount.sol",
  "compiler": {
    "name": "solc",
    "version": "0.8.21+commit.d9974bed.Emscripten.clang"
  },
  "schemaVersion": "3.4.16",
  "updatedAt": "2025-04-22T20:53:16.973Z",
  "networkType": "ethereum",
  "devdoc": {
    "kind": "dev",
    "methods": {},
    "version": 1
  },
  "userdoc": {
    "kind": "user",
    "methods": {},
    "version": 1
  }
}